{
  "address": "0x4DfC6DA2089b0dfCF04788b341197146Ea97f743",
  "abi": [
    {
      "inputs": [
        {
          "internalType": "address",
          "name": "_governor",
          "type": "address"
        }
      ],
      "stateMutability": "nonpayable",
      "type": "constructor"
    },
    {
      "inputs": [],
      "name": "IMakerDAOBudgetManager_InvoiceClaimed",
      "type": "error"
    },
    {
      "inputs": [],
      "name": "IMakerDAOBudgetManager_OnlyKeeper",
      "type": "error"
    },
    {
      "inputs": [],
      "name": "OnlyGovernor",
      "type": "error"
    },
    {
      "inputs": [],
      "name": "OnlyPendingGovernor",
      "type": "error"
    },
    {
      "inputs": [],
      "name": "ZeroAddress",
      "type": "error"
    },
    {
      "anonymous": false,
      "inputs": [
        {
          "indexed": false,
          "internalType": "uint256",
          "name": "_claimed",
          "type": "uint256"
        },
        {
          "indexed": false,
          "internalType": "uint256",
          "name": "_refilled",
          "type": "uint256"
        }
      ],
      "name": "ClaimedDai",
      "type": "event"
    },
    {
      "anonymous": false,
      "inputs": [
        {
          "indexed": true,
          "internalType": "uint256",
          "name": "_nonce",
          "type": "uint256"
        }
      ],
      "name": "DeletedInvoice",
      "type": "event"
    },
    {
      "anonymous": false,
      "inputs": [
        {
          "indexed": false,
          "internalType": "address",
          "name": "_token",
          "type": "address"
        },
        {
          "indexed": false,
          "internalType": "uint256",
          "name": "_amount",
          "type": "uint256"
        },
        {
          "indexed": false,
          "internalType": "address",
          "name": "_to",
          "type": "address"
        }
      ],
      "name": "DustSent",
      "type": "event"
    },
    {
      "anonymous": false,
      "inputs": [
        {
          "indexed": true,
          "internalType": "uint256",
          "name": "_nonce",
          "type": "uint256"
        },
        {
          "indexed": false,
          "internalType": "uint256",
          "name": "_gasCostETH",
          "type": "uint256"
        },
        {
          "indexed": false,
          "internalType": "uint256",
          "name": "_claimableDai",
          "type": "uint256"
        },
        {
          "indexed": false,
          "internalType": "string",
          "name": "_description",
          "type": "string"
        }
      ],
      "name": "InvoicedGas",
      "type": "event"
    },
    {
      "anonymous": false,
      "inputs": [
        {
          "indexed": false,
          "internalType": "address",
          "name": "_keep3r",
          "type": "address"
        },
        {
          "indexed": false,
          "internalType": "address",
          "name": "_job",
          "type": "address"
        }
      ],
      "name": "Keep3rJobSet",
      "type": "event"
    },
    {
      "anonymous": false,
      "inputs": [
        {
          "indexed": false,
          "internalType": "address",
          "name": "_keeper",
          "type": "address"
        }
      ],
      "name": "KeeperSet",
      "type": "event"
    },
    {
      "anonymous": false,
      "inputs": [
        {
          "indexed": false,
          "internalType": "address",
          "name": "_networkPaymentAdapter",
          "type": "address"
        }
      ],
      "name": "NetworkPaymentAdapterSet",
      "type": "event"
    },
    {
      "anonymous": false,
      "inputs": [
        {
          "indexed": false,
          "internalType": "address",
          "name": "_newGovernor",
          "type": "address"
        }
      ],
      "name": "PendingGovernorAccepted",
      "type": "event"
    },
    {
      "anonymous": false,
      "inputs": [
        {
          "indexed": false,
          "internalType": "address",
          "name": "_governor",
          "type": "address"
        },
        {
          "indexed": false,
          "internalType": "address",
          "name": "_pendingGovernor",
          "type": "address"
        }
      ],
      "name": "PendingGovernorSet",
      "type": "event"
    },
    {
      "inputs": [],
      "name": "DAI",
      "outputs": [
        {
          "internalType": "address",
          "name": "",
          "type": "address"
        }
      ],
      "stateMutability": "view",
      "type": "function"
    },
    {
      "inputs": [],
      "name": "ETH_ADDRESS",
      "outputs": [
        {
          "internalType": "address",
          "name": "",
          "type": "address"
        }
      ],
      "stateMutability": "view",
      "type": "function"
    },
    {
      "inputs": [],
      "name": "acceptPendingGovernor",
      "outputs": [],
      "stateMutability": "nonpayable",
      "type": "function"
    },
    {
      "inputs": [],
      "name": "claimDai",
      "outputs": [],
      "stateMutability": "nonpayable",
      "type": "function"
    },
    {
      "inputs": [],
      "name": "claimDaiUpkeep",
      "outputs": [],
      "stateMutability": "nonpayable",
      "type": "function"
    },
    {
      "inputs": [],
      "name": "daiToClaim",
      "outputs": [
        {
          "internalType": "uint256",
          "name": "",
          "type": "uint256"
        }
      ],
      "stateMutability": "view",
      "type": "function"
    },
    {
      "inputs": [
        {
          "internalType": "uint256",
          "name": "_invoiceNonce",
          "type": "uint256"
        }
      ],
      "name": "deleteInvoice",
      "outputs": [],
      "stateMutability": "nonpayable",
      "type": "function"
    },
    {
      "inputs": [],
      "name": "getBufferSize",
      "outputs": [
        {
          "internalType": "uint256",
          "name": "_bufferSize",
          "type": "uint256"
        }
      ],
      "stateMutability": "view",
      "type": "function"
    },
    {
      "inputs": [],
      "name": "getDaiCredits",
      "outputs": [
        {
          "internalType": "uint256",
          "name": "_daiCredits",
          "type": "uint256"
        }
      ],
      "stateMutability": "view",
      "type": "function"
    },
    {
      "inputs": [],
      "name": "governor",
      "outputs": [
        {
          "internalType": "address",
          "name": "",
          "type": "address"
        }
      ],
      "stateMutability": "view",
      "type": "function"
    },
    {
      "inputs": [
        {
          "internalType": "uint256",
          "name": "",
          "type": "uint256"
        }
      ],
      "name": "invoiceAmount",
      "outputs": [
        {
          "internalType": "uint256",
          "name": "",
          "type": "uint256"
        }
      ],
      "stateMutability": "view",
      "type": "function"
    },
    {
      "inputs": [
        {
          "internalType": "uint256",
          "name": "_gasCostETH",
          "type": "uint256"
        },
        {
          "internalType": "uint256",
          "name": "_claimableDai",
          "type": "uint256"
        },
        {
          "internalType": "string",
          "name": "_description",
          "type": "string"
        }
      ],
      "name": "invoiceGas",
      "outputs": [],
      "stateMutability": "nonpayable",
      "type": "function"
    },
    {
      "inputs": [],
      "name": "invoiceNonce",
      "outputs": [
        {
          "internalType": "uint256",
          "name": "",
          "type": "uint256"
        }
      ],
      "stateMutability": "view",
      "type": "function"
    },
    {
      "inputs": [],
      "name": "job",
      "outputs": [
        {
          "internalType": "address",
          "name": "",
          "type": "address"
        }
      ],
      "stateMutability": "view",
      "type": "function"
    },
    {
      "inputs": [],
      "name": "keep3r",
      "outputs": [
        {
          "internalType": "address",
          "name": "",
          "type": "address"
        }
      ],
      "stateMutability": "view",
      "type": "function"
    },
    {
      "inputs": [],
      "name": "keeper",
      "outputs": [
        {
          "internalType": "address",
          "name": "",
          "type": "address"
        }
      ],
      "stateMutability": "view",
      "type": "function"
    },
    {
      "inputs": [],
      "name": "networkPaymentAdapter",
      "outputs": [
        {
          "internalType": "address",
          "name": "",
          "type": "address"
        }
      ],
      "stateMutability": "view",
      "type": "function"
    },
    {
      "inputs": [],
      "name": "pendingGovernor",
      "outputs": [
        {
          "internalType": "address",
          "name": "",
          "type": "address"
        }
      ],
      "stateMutability": "view",
      "type": "function"
    },
    {
      "inputs": [
        {
          "internalType": "address",
          "name": "_token",
          "type": "address"
        },
        {
          "internalType": "uint256",
          "name": "_amount",
          "type": "uint256"
        },
        {
          "internalType": "address",
          "name": "_to",
          "type": "address"
        }
      ],
      "name": "sendDust",
      "outputs": [],
      "stateMutability": "nonpayable",
      "type": "function"
    },
    {
      "inputs": [
        {
          "internalType": "address",
          "name": "_keep3r",
          "type": "address"
        },
        {
          "internalType": "address",
          "name": "_job",
          "type": "address"
        }
      ],
      "name": "setKeep3rJob",
      "outputs": [],
      "stateMutability": "nonpayable",
      "type": "function"
    },
    {
      "inputs": [
        {
          "internalType": "address",
          "name": "_keeper",
          "type": "address"
        }
      ],
      "name": "setKeeper",
      "outputs": [],
      "stateMutability": "nonpayable",
      "type": "function"
    },
    {
      "inputs": [
        {
          "internalType": "address",
          "name": "_networkPaymentAdapter",
          "type": "address"
        }
      ],
      "name": "setNetworkPaymentAdapter",
      "outputs": [],
      "stateMutability": "nonpayable",
      "type": "function"
    },
    {
      "inputs": [
        {
          "internalType": "address",
          "name": "_pendingGovernor",
          "type": "address"
        }
      ],
      "name": "setPendingGovernor",
      "outputs": [],
      "stateMutability": "nonpayable",
      "type": "function"
    }
  ],
  "transactionHash": "0x0c8491c8964efa39182c4fa5cd3f2707b0cde033895ca3ca05c87301de777902",
  "args": [
    "0xa211CA28299D9caaD3d6A050C98f393726B1F39e"
  ],
  "numDeployments": 4,
  "solcInputHash": "9862d6490cbde428ac3979491f2580fd",
  "bytecode": "0x6080604052600280546001600160a01b031990811673eb02addcfd8b773a5ffa6b9d1fe99c566f8c44cc17909155600380548216735d469e1ef75507b0e0439667ae45e280b9d81b9c1790556004805490911673aefed819b6657b3960a8515863abe0529dfc444a17905534801561007657600080fd5b506040516112f43803806112f483398101604081905261009591610160565b806001600160a01b0381166100bd5760405163d92e233d60e01b815260040160405180910390fd5b600080546001600160a01b0319166001600160a01b03928316179055600254600354604080519284168352921660208201527ff5e10d0ae40ac48b447a4151e58370c547304f802ae1b11dea98176396cfc287910160405180910390a16004546040516001600160a01b0390911681527f4423f51b83075b582e1594279ae6a150554f91311e34c6ed8a05a15fbb2e9d3a9060200160405180910390a150610190565b60006020828403121561017257600080fd5b81516001600160a01b038116811461018957600080fd5b9392505050565b6111558061019f6000396000f3fe608060405234801561001057600080fd5b506004361061014d5760003560e01c80638628d9b6116100c3578063b7cb95131161007c578063b7cb951314610289578063c07514f41461029c578063e0bab4c4146102a5578063e3056a34146102c0578063e515717d146102d3578063f235757f146102f357600080fd5b80638628d9b61461021a578063966abd00146102225780639b63d483146102355780639c83640914610248578063a734f06e1461025b578063aced16611461027657600080fd5b8063307fba0e11610115578063307fba0e146101bd57806358e7ec3c146101c5578063634c7bb5146101d8578063748747e6146101eb57806375c46370146101fe57806380c8610f1461020757600080fd5b80630463120f14610152578063064cc89a1461016d5780630c340a241461017757806313f6986d146101a257806315667bb6146101aa575b600080fd5b61015a610306565b6040519081526020015b60405180910390f35b610175610315565b005b60005461018a906001600160a01b031681565b6040516001600160a01b039091168152602001610164565b61017561034a565b60045461018a906001600160a01b031681565b6101756103d3565b60035461018a906001600160a01b031681565b60025461018a906001600160a01b031681565b6101756101f9366004610e54565b6103fe565b61015a60075481565b610175610215366004610e6f565b61047e565b61015a61052e565b610175610230366004610e88565b61055e565b610175610243366004610ec4565b610674565b610175610256366004610f0d565b61070e565b61018a73eeeeeeeeeeeeeeeeeeeeeeeeeeeeeeeeeeeeeeee81565b60055461018a906001600160a01b031681565b610175610297366004610e54565b6107c1565b61015a60065481565b61018a736b175474e89094c44da98b954eedeac495271d0f81565b60015461018a906001600160a01b031681565b61015a6102e1366004610e6f565b60086020526000908152604090205481565b610175610301366004610e54565b61083a565b60006103106108e8565b905090565b6000546001600160a01b031633146103405760405163070545c960e51b815260040160405180910390fd5b610348610977565b565b6001546001600160a01b0316331461037557604051639ba0305d60e01b815260040160405180910390fd5b60018054600080546001600160a01b0383166001600160a01b031991821681179092559091169091556040519081527f5d5d6e01b731c3e68060f7fe13156f6197d4aeffc2d6f498e34c717ae616b7349060200160405180910390a1565b6005546001600160a01b0316331461034057604051631a942ddf60e01b815260040160405180910390fd5b6000546001600160a01b031633146104295760405163070545c960e51b815260040160405180910390fd5b600580546001600160a01b0319166001600160a01b0383169081179091556040519081527fdc3dba1d64dd67c0dc8b12621edd0c6ca4303a9073c3a8fcac38115e73d67b6b906020015b60405180910390a150565b6000546001600160a01b031633146104a95760405163070545c960e51b815260040160405180910390fd5b6000818152600860205260409020546006548111156104db57604051632b79e92560e21b815260040160405180910390fd5b80600660008282546104ed9190610fe7565b90915550506000828152600860205260408082208290555183917f85372a39829651e8322c98e0bf789d35281a87881f3d2978f0bbc15613366fbd91a25050565b6000806105396108e8565b9050600654811161054b576000610558565b6006546105589082610fe7565b91505090565b6000546001600160a01b031633146105895760405163070545c960e51b815260040160405180910390fd5b6001600160a01b0381166105b05760405163d92e233d60e01b815260040160405180910390fd5b6001600160a01b03831673eeeeeeeeeeeeeeeeeeeeeeeeeeeeeeeeeeeeeeee1415610611576040516001600160a01b0382169083156108fc029084906000818181858888f1935050505015801561060b573d6000803e3d6000fd5b50610625565b6106256001600160a01b0384168284610b71565b604080516001600160a01b0385811682526020820185905283168183015290517f9a3055ded8c8b5f21bbf4946c5afab6e1fa8b3f057922658e5e1ade125fb0b1e9181900360600190a1505050565b6000546001600160a01b0316331461069f5760405163070545c960e51b815260040160405180910390fd5b600280546001600160a01b038481166001600160a01b03199283168117909355600380549185169190921681179091556040805192835260208301919091527ff5e10d0ae40ac48b447a4151e58370c547304f802ae1b11dea98176396cfc28791015b60405180910390a15050565b6000546001600160a01b031633146107395760405163070545c960e51b815260040160405180910390fd5b816006600082825461074b9190610ffe565b92505081905550816008600060076000815461076690611016565b9190508190558152602001908152602001600020819055506007547f21283ff2e4dab34d074618191a7f774327a78694039444886e80f861a2c1d87b8484846040516107b49392919061108d565b60405180910390a2505050565b6000546001600160a01b031633146107ec5760405163070545c960e51b815260040160405180910390fd5b600480546001600160a01b0319166001600160a01b0383169081179091556040519081527f4423f51b83075b582e1594279ae6a150554f91311e34c6ed8a05a15fbb2e9d3a90602001610473565b6000546001600160a01b031633146108655760405163070545c960e51b815260040160405180910390fd5b6001600160a01b03811661088c5760405163d92e233d60e01b815260040160405180910390fd5b600180546001600160a01b0319166001600160a01b038381169182179092556000546040805191909316815260208101919091527f6353ec38ac394f8be94bfafcdd3580d356470599059eaeebedc3207e1cc03dec9101610473565b60025460035460405163168f92e760e01b81526001600160a01b039182166004820152736b175474e89094c44da98b954eedeac495271d0f6024820152600092919091169063168f92e790604401602060405180830381865afa158015610953573d6000803e3d6000fd5b505050506040513d601f19601f8201168201806040525081019061031091906110b5565b6000600460009054906101000a90046001600160a01b03166001600160a01b031663dc29f1de6040518163ffffffff1660e01b81526004016020604051808303816000875af11580156109ce573d6000803e3d6000fd5b505050506040513d601f19601f820116820180604052508101906109f291906110b5565b90506000610a0260065483610bc8565b90508060066000828254610a169190610fe7565b90915550610a2690508183610fe7565b91508115610b3b5760025460405163095ea7b360e01b81526001600160a01b03909116600482015260248101839052736b175474e89094c44da98b954eedeac495271d0f9063095ea7b3906044016020604051808303816000875af1158015610a93573d6000803e3d6000fd5b505050506040513d601f19601f82011682018060405250810190610ab791906110ce565b5060025460035460405163575288bf60e01b81526001600160a01b039182166004820152736b175474e89094c44da98b954eedeac495271d0f60248201526044810185905291169063575288bf90606401600060405180830381600087803b158015610b2257600080fd5b505af1158015610b36573d6000803e3d6000fd5b505050505b60408051828152602081018490527f74c075db9c63a85930d652ba1150938d2180fb1e3d04d5e6ee5051c7d9f9d82c9101610702565b604080516001600160a01b038416602482015260448082018490528251808303909101815260649091019091526020810180516001600160e01b031663a9059cbb60e01b179052610bc3908490610be0565b505050565b6000818310610bd75781610bd9565b825b9392505050565b6000610c35826040518060400160405280602081526020017f5361666545524332303a206c6f772d6c6576656c2063616c6c206661696c6564815250856001600160a01b0316610cb79092919063ffffffff16565b805190915015610bc35780806020019051810190610c5391906110ce565b610bc35760405162461bcd60e51b815260206004820152602a60248201527f5361666545524332303a204552433230206f7065726174696f6e20646964206e6044820152691bdd081cdd58d8d9595960b21b60648201526084015b60405180910390fd5b6060610cc68484600085610cce565b949350505050565b606082471015610d2f5760405162461bcd60e51b815260206004820152602660248201527f416464726573733a20696e73756666696369656e742062616c616e636520666f6044820152651c8818d85b1b60d21b6064820152608401610cae565b6001600160a01b0385163b610d865760405162461bcd60e51b815260206004820152601d60248201527f416464726573733a2063616c6c20746f206e6f6e2d636f6e74726163740000006044820152606401610cae565b600080866001600160a01b03168587604051610da291906110f0565b60006040518083038185875af1925050503d8060008114610ddf576040519150601f19603f3d011682016040523d82523d6000602084013e610de4565b606091505b5091509150610df4828286610dff565b979650505050505050565b60608315610e0e575081610bd9565b825115610e1e5782518084602001fd5b8160405162461bcd60e51b8152600401610cae919061110c565b80356001600160a01b0381168114610e4f57600080fd5b919050565b600060208284031215610e6657600080fd5b610bd982610e38565b600060208284031215610e8157600080fd5b5035919050565b600080600060608486031215610e9d57600080fd5b610ea684610e38565b925060208401359150610ebb60408501610e38565b90509250925092565b60008060408385031215610ed757600080fd5b610ee083610e38565b9150610eee60208401610e38565b90509250929050565b634e487b7160e01b600052604160045260246000fd5b600080600060608486031215610f2257600080fd5b8335925060208401359150604084013567ffffffffffffffff80821115610f4857600080fd5b818601915086601f830112610f5c57600080fd5b813581811115610f6e57610f6e610ef7565b604051601f8201601f19908116603f01168101908382118183101715610f9657610f96610ef7565b81604052828152896020848701011115610faf57600080fd5b8260208601602083013760006020848301015280955050505050509250925092565b634e487b7160e01b600052601160045260246000fd5b600082821015610ff957610ff9610fd1565b500390565b6000821982111561101157611011610fd1565b500190565b600060001982141561102a5761102a610fd1565b5060010190565b60005b8381101561104c578181015183820152602001611034565b8381111561105b576000848401525b50505050565b60008151808452611079816020860160208601611031565b601f01601f19169290920160200192915050565b8381528260208201526060604082015260006110ac6060830184611061565b95945050505050565b6000602082840312156110c757600080fd5b5051919050565b6000602082840312156110e057600080fd5b81518015158114610bd957600080fd5b60008251611102818460208701611031565b9190910192915050565b602081526000610bd9602083018461106156fea26469706673582212206ba0ec1a3fac4448c31a1bd1c36d1d91e8918dd6b5a0996a19df16edff2065e164736f6c634300080b0033",
  "devdoc": {
    "kind": "dev",
    "methods": {
      "deleteInvoice(uint256)": {
        "params": {
          "_invoiceNonce": "The number ID of the deleted invoice"
        }
      },
      "getBufferSize()": {
        "details": "This should return an estimate of the total value of the buffer in DAI. Keeper Networks should convert non-DAI assets to DAI value via an oracle. Ex) If the network bulk trades DAI for ETH then the value of the ETH sitting in the treasury should count towards this buffer size."
      },
      "getDaiCredits()": {
        "returns": {
          "_daiCredits": "The amount of DAI credits on the Keep3r Job"
        }
      },
      "invoiceGas(uint256,uint256,string)": {
        "params": {
          "_claimableDai": "The equivalent amount of DAI to be charged for the gas amount",
          "_description": "A text description to explain the nature of the invoice",
          "_gasCostETH": "The amount of gas invoiced in ETH"
        }
      },
      "sendDust(address,uint256,address)": {
        "params": {
          "_amount": "The amont of the token that will be transferred",
          "_to": "The address that will receive the idle funds",
          "_token": "The token that will be transferred"
        }
      },
      "setKeep3rJob(address,address)": {
        "params": {
          "_job": "The address of the Job contract",
          "_keep3r": "The address of Keep3r where the job is registered"
        }
      },
      "setKeeper(address)": {
        "params": {
          "_keeper": "The address allowed to upkeep the claim function"
        }
      },
      "setNetworkPaymentAdapter(address)": {
        "params": {
          "_networkPaymentAdapter": "The address of the network payment adapter"
        }
      },
      "setPendingGovernor(address)": {
        "params": {
          "_pendingGovernor": "The address being proposed as the new governance"
        }
      }
    },
    "stateVariables": {
      "daiToClaim": {
        "return": "_dai The amount of DAI currently in debt to the contract",
        "returns": {
          "_0": "_dai The amount of DAI currently in debt to the contract"
        }
      },
      "invoiceAmount": {
        "params": {
          "_invoiceNonce": "The invoice ID"
        },
        "return": "_invoiceDai The amount of invoiced DAI",
        "returns": {
          "_0": "_invoiceDai The amount of invoiced DAI"
        }
      },
      "invoiceNonce": {
        "params": {
          "_currentNonce": "The index of the current nonce"
        }
      },
      "job": {
        "return": "_job The address of the Job contract",
        "returns": {
          "_0": "_job The address of the Job contract"
        }
      },
      "keep3r": {
        "return": "_keep3r The address of Keep3r where the job is registered",
        "returns": {
          "_0": "_keep3r The address of Keep3r where the job is registered"
        }
      },
      "keeper": {
        "return": "_keeper The address allowed to upkeep the claim function",
        "returns": {
          "_0": "_keeper The address allowed to upkeep the claim function"
        }
      },
      "networkPaymentAdapter": {
        "return": "_networkPaymentAdapter",
        "returns": {
          "_0": "_networkPaymentAdapter"
        }
      }
    },
    "version": 1
  },
  "userdoc": {
    "errors": {
      "IMakerDAOBudgetManager_InvoiceClaimed()": [
        {
          "notice": "Throws when the invoice to be deleted has already been claimed"
        }
      ],
      "IMakerDAOBudgetManager_OnlyKeeper()": [
        {
          "notice": "Throws when an unallowed address tries to trigger upkeep"
        }
      ],
      "OnlyGovernor()": [
        {
          "notice": "Throws if the caller of the function is not Governance"
        }
      ],
      "OnlyPendingGovernor()": [
        {
          "notice": "Throws if the caller of the function is not pendingGovernance"
        }
      ],
      "ZeroAddress()": [
        {
          "notice": "Throws if a variable is assigned to the zero address"
        }
      ]
    },
    "events": {
      "ClaimedDai(uint256,uint256)": {
        "notice": "Emitted when the DAI vest mechanism is executed"
      },
      "DeletedInvoice(uint256)": {
        "notice": "Emitted when Governor removes an incorrect invoice"
      },
      "DustSent(address,uint256,address)": {
        "notice": "Emitted when dust is sent"
      },
      "InvoicedGas(uint256,uint256,uint256,string)": {
        "notice": "Emitted when Governor adds an invoice to be charged"
      },
      "Keep3rJobSet(address,address)": {
        "notice": "Emitted when Governor changes the Keep3r and Job addresses"
      },
      "KeeperSet(address)": {
        "notice": "Emitted when Governor changes the Keeper address"
      },
      "NetworkPaymentAdapterSet(address)": {
        "notice": "Emitted when new network payment adapter has been setted"
      },
      "PendingGovernorAccepted(address)": {
        "notice": "Emitted when pendingGovernance accepts to be governance"
      },
      "PendingGovernorSet(address,address)": {
        "notice": "Emitted when a new governance is proposed"
      }
    },
    "kind": "user",
    "methods": {
      "DAI()": {
        "notice": "The address of DAI"
      },
      "acceptPendingGovernor()": {
        "notice": "Changes the governance from the current governance to the previously proposed address"
      },
      "claimDai()": {
        "notice": "Allows Governor to trigger DAI vest"
      },
      "claimDaiUpkeep()": {
        "notice": "Allows Keeper to trigger DAI vest"
      },
      "daiToClaim()": {
        "notice": "Sum of invoiced DAI amount minus already claimed DAI"
      },
      "deleteInvoice(uint256)": {
        "notice": "Allows Governor to remove an unclaimed invoice"
      },
      "getDaiCredits()": {
        "notice": "Amount of credits available"
      },
      "governor()": {
        "notice": "Stores the governance address"
      },
      "invoiceAmount(uint256)": {
        "notice": "Maps the invoice ID to the invoiced DAI amount"
      },
      "invoiceGas(uint256,uint256,string)": {
        "notice": "Allows Governor to add invoices"
      },
      "invoiceNonce()": {
        "notice": "Current invoice nonce"
      },
      "pendingGovernor()": {
        "notice": "Stores the pendingGovernance address"
      },
      "sendDust(address,uint256,address)": {
        "notice": "Allows an authorized user to transfer the tokens or eth that may have been left in a contract"
      },
      "setKeep3rJob(address,address)": {
        "notice": "Allows Governor to set new Keep3rJob"
      },
      "setKeeper(address)": {
        "notice": "Allows Governor to set new Keeeper"
      },
      "setNetworkPaymentAdapter(address)": {
        "notice": "Allows Governor to set new network payment adapter"
      },
      "setPendingGovernor(address)": {
        "notice": "Proposes a new address to be governance"
      }
    },
    "version": 1
  },
  "storageLayout": {
    "storage": [
      {
        "astId": 1229,
        "contract": "solidity/contracts/MakerDAOBudgetManager.sol:MakerDAOBudgetManager",
        "label": "governor",
        "offset": 0,
        "slot": "0",
        "type": "t_address"
      },
      {
        "astId": 1232,
        "contract": "solidity/contracts/MakerDAOBudgetManager.sol:MakerDAOBudgetManager",
        "label": "pendingGovernor",
        "offset": 0,
        "slot": "1",
        "type": "t_address"
      },
      {
        "astId": 718,
        "contract": "solidity/contracts/MakerDAOBudgetManager.sol:MakerDAOBudgetManager",
        "label": "keep3r",
        "offset": 0,
        "slot": "2",
        "type": "t_address"
      },
      {
        "astId": 723,
        "contract": "solidity/contracts/MakerDAOBudgetManager.sol:MakerDAOBudgetManager",
        "label": "job",
        "offset": 0,
        "slot": "3",
        "type": "t_address"
      },
      {
        "astId": 728,
        "contract": "solidity/contracts/MakerDAOBudgetManager.sol:MakerDAOBudgetManager",
        "label": "networkPaymentAdapter",
        "offset": 0,
        "slot": "4",
        "type": "t_address"
      },
      {
        "astId": 732,
        "contract": "solidity/contracts/MakerDAOBudgetManager.sol:MakerDAOBudgetManager",
        "label": "keeper",
        "offset": 0,
        "slot": "5",
        "type": "t_address"
      },
      {
        "astId": 736,
        "contract": "solidity/contracts/MakerDAOBudgetManager.sol:MakerDAOBudgetManager",
        "label": "daiToClaim",
        "offset": 0,
        "slot": "6",
        "type": "t_uint256"
      },
      {
        "astId": 740,
        "contract": "solidity/contracts/MakerDAOBudgetManager.sol:MakerDAOBudgetManager",
        "label": "invoiceNonce",
        "offset": 0,
        "slot": "7",
        "type": "t_uint256"
      },
      {
        "astId": 746,
        "contract": "solidity/contracts/MakerDAOBudgetManager.sol:MakerDAOBudgetManager",
        "label": "invoiceAmount",
        "offset": 0,
        "slot": "8",
        "type": "t_mapping(t_uint256,t_uint256)"
      }
    ],
    "types": {
      "t_address": {
        "encoding": "inplace",
        "label": "address",
        "numberOfBytes": "20"
      },
      "t_mapping(t_uint256,t_uint256)": {
        "encoding": "mapping",
        "key": "t_uint256",
        "label": "mapping(uint256 => uint256)",
        "numberOfBytes": "32",
        "value": "t_uint256"
      },
      "t_uint256": {
        "encoding": "inplace",
        "label": "uint256",
        "numberOfBytes": "32"
      }
    }
  }
}