{
  "address": "0x37b375e3D418fbECba6b283e704F840AB32f3b3C",
  "abi": [
    {
      "inputs": [
        {
          "internalType": "address",
          "name": "_governor",
          "type": "address"
        }
      ],
      "stateMutability": "nonpayable",
      "type": "constructor"
    },
    {
      "inputs": [],
      "name": "IncorrectVestId",
      "type": "error"
    },
    {
      "inputs": [],
      "name": "InvoiceClaimed",
      "type": "error"
    },
    {
      "inputs": [],
      "name": "MinBuffer",
      "type": "error"
    },
    {
      "inputs": [],
      "name": "OnlyGovernor",
      "type": "error"
    },
    {
      "inputs": [],
      "name": "OnlyKeeper",
      "type": "error"
    },
    {
      "inputs": [],
      "name": "OnlyMaker",
      "type": "error"
    },
    {
      "inputs": [],
      "name": "OnlyPendingGovernor",
      "type": "error"
    },
    {
      "inputs": [],
      "name": "ZeroAddress",
      "type": "error"
    },
    {
      "anonymous": false,
      "inputs": [
        {
          "indexed": false,
          "internalType": "uint256",
          "name": "_minBuffer",
          "type": "uint256"
        },
        {
          "indexed": false,
          "internalType": "uint256",
          "name": "_maxBuffer",
          "type": "uint256"
        }
      ],
      "name": "BufferSet",
      "type": "event"
    },
    {
      "anonymous": false,
      "inputs": [
        {
          "indexed": false,
          "internalType": "uint256",
          "name": "_claimed",
          "type": "uint256"
        },
        {
          "indexed": false,
          "internalType": "uint256",
          "name": "_refilled",
          "type": "uint256"
        },
        {
          "indexed": false,
          "internalType": "uint256",
          "name": "_returned",
          "type": "uint256"
        }
      ],
      "name": "ClaimedDai",
      "type": "event"
    },
    {
      "anonymous": false,
      "inputs": [
        {
          "indexed": true,
          "internalType": "uint256",
          "name": "_nonce",
          "type": "uint256"
        }
      ],
      "name": "DeletedInvoice",
      "type": "event"
    },
    {
      "anonymous": false,
      "inputs": [
        {
          "indexed": false,
          "internalType": "address",
          "name": "_token",
          "type": "address"
        },
        {
          "indexed": false,
          "internalType": "uint256",
          "name": "_amount",
          "type": "uint256"
        },
        {
          "indexed": false,
          "internalType": "address",
          "name": "_to",
          "type": "address"
        }
      ],
      "name": "DustSent",
      "type": "event"
    },
    {
      "anonymous": false,
      "inputs": [
        {
          "indexed": true,
          "internalType": "uint256",
          "name": "_nonce",
          "type": "uint256"
        },
        {
          "indexed": false,
          "internalType": "uint256",
          "name": "_gasCostETH",
          "type": "uint256"
        },
        {
          "indexed": false,
          "internalType": "uint256",
          "name": "_claimableDai",
          "type": "uint256"
        },
        {
          "indexed": false,
          "internalType": "string",
          "name": "_description",
          "type": "string"
        }
      ],
      "name": "InvoicedGas",
      "type": "event"
    },
    {
      "anonymous": false,
      "inputs": [
        {
          "indexed": false,
          "internalType": "address",
          "name": "_keep3r",
          "type": "address"
        },
        {
          "indexed": false,
          "internalType": "address",
          "name": "_job",
          "type": "address"
        }
      ],
      "name": "Keep3rJobSet",
      "type": "event"
    },
    {
      "anonymous": false,
      "inputs": [
        {
          "indexed": false,
          "internalType": "address",
          "name": "_keeper",
          "type": "address"
        }
      ],
      "name": "KeeperSet",
      "type": "event"
    },
    {
      "anonymous": false,
      "inputs": [
        {
          "indexed": false,
          "internalType": "address",
          "name": "_newGovernor",
          "type": "address"
        }
      ],
      "name": "PendingGovernorAccepted",
      "type": "event"
    },
    {
      "anonymous": false,
      "inputs": [
        {
          "indexed": false,
          "internalType": "address",
          "name": "_governor",
          "type": "address"
        },
        {
          "indexed": false,
          "internalType": "address",
          "name": "_pendingGovernor",
          "type": "address"
        }
      ],
      "name": "PendingGovernorSet",
      "type": "event"
    },
    {
      "anonymous": false,
      "inputs": [
        {
          "indexed": true,
          "internalType": "uint256",
          "name": "_vestId",
          "type": "uint256"
        },
        {
          "indexed": false,
          "internalType": "uint48",
          "name": "_bgn",
          "type": "uint48"
        },
        {
          "indexed": false,
          "internalType": "uint48",
          "name": "_clf",
          "type": "uint48"
        },
        {
          "indexed": false,
          "internalType": "uint48",
          "name": "_fin",
          "type": "uint48"
        },
        {
          "indexed": false,
          "internalType": "uint128",
          "name": "_tot",
          "type": "uint128"
        }
      ],
      "name": "VestSet",
      "type": "event"
    },
    {
      "inputs": [],
      "name": "DAI",
      "outputs": [
        {
          "internalType": "address",
          "name": "",
          "type": "address"
        }
      ],
      "stateMutability": "view",
      "type": "function"
    },
    {
      "inputs": [],
      "name": "DAI_JOIN",
      "outputs": [
        {
          "internalType": "address",
          "name": "",
          "type": "address"
        }
      ],
      "stateMutability": "view",
      "type": "function"
    },
    {
      "inputs": [],
      "name": "DSS_VEST",
      "outputs": [
        {
          "internalType": "address",
          "name": "",
          "type": "address"
        }
      ],
      "stateMutability": "view",
      "type": "function"
    },
    {
      "inputs": [],
      "name": "ETH_ADDRESS",
      "outputs": [
        {
          "internalType": "address",
          "name": "",
          "type": "address"
        }
      ],
      "stateMutability": "view",
      "type": "function"
    },
    {
      "inputs": [],
      "name": "MAKER_DAO",
      "outputs": [
        {
          "internalType": "address",
          "name": "",
          "type": "address"
        }
      ],
      "stateMutability": "view",
      "type": "function"
    },
    {
      "inputs": [],
      "name": "VOW",
      "outputs": [
        {
          "internalType": "address",
          "name": "",
          "type": "address"
        }
      ],
      "stateMutability": "view",
      "type": "function"
    },
    {
      "inputs": [],
      "name": "acceptPendingGovernor",
      "outputs": [],
      "stateMutability": "nonpayable",
      "type": "function"
    },
    {
      "inputs": [],
      "name": "buffer",
      "outputs": [
        {
          "internalType": "uint256",
          "name": "_minBuffer",
          "type": "uint256"
        },
        {
          "internalType": "uint256",
          "name": "_maxBuffer",
          "type": "uint256"
        }
      ],
      "stateMutability": "view",
      "type": "function"
    },
    {
      "inputs": [],
      "name": "claimDai",
      "outputs": [],
      "stateMutability": "nonpayable",
      "type": "function"
    },
    {
      "inputs": [],
      "name": "claimDaiUpkeep",
      "outputs": [],
      "stateMutability": "nonpayable",
      "type": "function"
    },
    {
      "inputs": [],
      "name": "credits",
      "outputs": [
        {
          "internalType": "uint256",
          "name": "_daiCredits",
          "type": "uint256"
        }
      ],
      "stateMutability": "view",
      "type": "function"
    },
    {
      "inputs": [],
      "name": "daiToClaim",
      "outputs": [
        {
          "internalType": "uint256",
          "name": "",
          "type": "uint256"
        }
      ],
      "stateMutability": "view",
      "type": "function"
    },
    {
      "inputs": [
        {
          "internalType": "uint256",
          "name": "_invoiceNonce",
          "type": "uint256"
        }
      ],
      "name": "deleteInvoice",
      "outputs": [],
      "stateMutability": "nonpayable",
      "type": "function"
    },
    {
      "inputs": [],
      "name": "governor",
      "outputs": [
        {
          "internalType": "address",
          "name": "",
          "type": "address"
        }
      ],
      "stateMutability": "view",
      "type": "function"
    },
    {
      "inputs": [
        {
          "internalType": "uint256",
          "name": "",
          "type": "uint256"
        }
      ],
      "name": "invoiceAmount",
      "outputs": [
        {
          "internalType": "uint256",
          "name": "",
          "type": "uint256"
        }
      ],
      "stateMutability": "view",
      "type": "function"
    },
    {
      "inputs": [
        {
          "internalType": "uint256",
          "name": "_gasCostETH",
          "type": "uint256"
        },
        {
          "internalType": "uint256",
          "name": "_claimableDai",
          "type": "uint256"
        },
        {
          "internalType": "string",
          "name": "_description",
          "type": "string"
        }
      ],
      "name": "invoiceGas",
      "outputs": [],
      "stateMutability": "nonpayable",
      "type": "function"
    },
    {
      "inputs": [],
      "name": "invoiceNonce",
      "outputs": [
        {
          "internalType": "uint256",
          "name": "",
          "type": "uint256"
        }
      ],
      "stateMutability": "view",
      "type": "function"
    },
    {
      "inputs": [],
      "name": "job",
      "outputs": [
        {
          "internalType": "address",
          "name": "",
          "type": "address"
        }
      ],
      "stateMutability": "view",
      "type": "function"
    },
    {
      "inputs": [],
      "name": "keep3r",
      "outputs": [
        {
          "internalType": "address",
          "name": "",
          "type": "address"
        }
      ],
      "stateMutability": "view",
      "type": "function"
    },
    {
      "inputs": [],
      "name": "keeper",
      "outputs": [
        {
          "internalType": "address",
          "name": "",
          "type": "address"
        }
      ],
      "stateMutability": "view",
      "type": "function"
    },
    {
      "inputs": [],
      "name": "maxBuffer",
      "outputs": [
        {
          "internalType": "uint256",
          "name": "",
          "type": "uint256"
        }
      ],
      "stateMutability": "view",
      "type": "function"
    },
    {
      "inputs": [],
      "name": "minBuffer",
      "outputs": [
        {
          "internalType": "uint256",
          "name": "",
          "type": "uint256"
        }
      ],
      "stateMutability": "view",
      "type": "function"
    },
    {
      "inputs": [],
      "name": "pendingGovernor",
      "outputs": [
        {
          "internalType": "address",
          "name": "",
          "type": "address"
        }
      ],
      "stateMutability": "view",
      "type": "function"
    },
    {
      "inputs": [
        {
          "internalType": "address",
          "name": "_token",
          "type": "address"
        },
        {
          "internalType": "uint256",
          "name": "_amount",
          "type": "uint256"
        },
        {
          "internalType": "address",
          "name": "_to",
          "type": "address"
        }
      ],
      "name": "sendDust",
      "outputs": [],
      "stateMutability": "nonpayable",
      "type": "function"
    },
    {
      "inputs": [
        {
          "internalType": "uint256",
          "name": "_minBuffer",
          "type": "uint256"
        },
        {
          "internalType": "uint256",
          "name": "_maxBuffer",
          "type": "uint256"
        }
      ],
      "name": "setBuffer",
      "outputs": [],
      "stateMutability": "nonpayable",
      "type": "function"
    },
    {
      "inputs": [
        {
          "internalType": "address",
          "name": "_keep3r",
          "type": "address"
        },
        {
          "internalType": "address",
          "name": "_job",
          "type": "address"
        }
      ],
      "name": "setKeep3rJob",
      "outputs": [],
      "stateMutability": "nonpayable",
      "type": "function"
    },
    {
      "inputs": [
        {
          "internalType": "address",
          "name": "_keeper",
          "type": "address"
        }
      ],
      "name": "setKeeper",
      "outputs": [],
      "stateMutability": "nonpayable",
      "type": "function"
    },
    {
      "inputs": [
        {
          "internalType": "address",
          "name": "_pendingGovernor",
          "type": "address"
        }
      ],
      "name": "setPendingGovernor",
      "outputs": [],
      "stateMutability": "nonpayable",
      "type": "function"
    },
    {
      "inputs": [
        {
          "internalType": "uint256",
          "name": "_vestId",
          "type": "uint256"
        }
      ],
      "name": "setVestId",
      "outputs": [],
      "stateMutability": "nonpayable",
      "type": "function"
    },
    {
      "inputs": [],
      "name": "vestId",
      "outputs": [
        {
          "internalType": "uint256",
          "name": "",
          "type": "uint256"
        }
      ],
      "stateMutability": "view",
      "type": "function"
    }
  ],
  "transactionHash": "0x3718fe7299610e31a2f10fb6f98ebf0e7b97b5e5bd7ad5143fa70b351d4e3da0",
  "args": [
    "0x45fEEBbd5Cf86dF61be8F81025E22Ae07a07cB23"
  ],
  "numDeployments": 3,
  "solcInputHash": "735163c6277dc42544fbb955906c3085",
  "bytecode": "0x608060405268d8d726b7177a80000060005569043c33c1937564800000600155600580546001600160a01b031990811673eb02addcfd8b773a5ffa6b9d1fe99c566f8c44cc1790915560068054909116735d469e1ef75507b0e0439667ae45e280b9d81b9c1790553480156200007457600080fd5b506040516200192738038062001927833981016040819052620000979162000200565b807f575b1e14d0e4daeb6a32c66b32cfdea5b2c73f8aa141c107d87c903e58106e10600054600154604051620000d7929190918252602082015260400190565b60405180910390a16001600160a01b038116620001075760405163d92e233d60e01b815260040160405180910390fd5b600380546001600160a01b0319166001600160a01b03928316179055600554600654604080519284168352921660208201527ff5e10d0ae40ac48b447a4151e58370c547304f802ae1b11dea98176396cfc287910160405180910390a160405163095ea7b360e01b8152739759a6ac90977b93b58547b4a71c78317f391a2860048201526000196024820152736b175474e89094c44da98b954eedeac495271d0f9063095ea7b3906044016020604051808303816000875af1158015620001d2573d6000803e3d6000fd5b505050506040513d601f19601f82011682018060405250810190620001f8919062000232565b505062000256565b6000602082840312156200021357600080fd5b81516001600160a01b03811681146200022b57600080fd5b9392505050565b6000602082840312156200024557600080fd5b815180151581146200022b57600080fd5b6116c180620002666000396000f3fe608060405234801561001057600080fd5b50600436106101da5760003560e01c8063869630d611610104578063b43c661f116100a2578063e3056a3411610071578063e3056a34146103cc578063e515717d146103df578063edaafe20146103ff578063f235757f1461041a57600080fd5b8063b43c661f1461037a578063c07514f414610395578063c4dd1dd61461039e578063e0bab4c4146103b157600080fd5b80639c836409116100de5780639c8364091461031e578063a734f06e14610331578063aced16611461034c578063b15a80961461035f57600080fd5b8063869630d6146102dd578063966abd00146102f85780639b63d4831461030b57600080fd5b8063307fba0e1161017c578063634c7bb51161014b578063634c7bb51461029b578063748747e6146102ae57806375c46370146102c157806380c8610f146102ca57600080fd5b8063307fba0e1461026e5780633a56573b1461027657806358e7ec3c1461027f5780635923bfc51461029257600080fd5b806311e5ff3f116101b857806311e5ff3f1461023457806313f6986d1461024b57806322c0ffc61461025357806326540fd21461026657600080fd5b806302fc0139146101df578063064cc89a146102175780630c340a2414610221575b600080fd5b6101fa739759a6ac90977b93b58547b4a71c78317f391a2881565b6040516001600160a01b0390911681526020015b60405180910390f35b61021f61042d565b005b6003546101fa906001600160a01b031681565b61023d60005481565b60405190815260200161020e565b61021f610462565b61021f6102613660046112a2565b6104eb565b61023d610567565b61021f6105fb565b61023d60025481565b6006546101fa906001600160a01b031681565b61023d60015481565b6005546101fa906001600160a01b031681565b61021f6102bc3660046112dc565b610626565b61023d60095481565b61021f6102d83660046112f9565b6106a6565b6101fa73a4c22f0e25c6630b2017979acf1f865e94695c4b81565b61021f610306366004611312565b610756565b61021f610319366004611354565b61086c565b61021f61032c3660046113a3565b6108fe565b6101fa73eeeeeeeeeeeeeeeeeeeeeeeeeeeeeeeeeeeeeeee81565b6007546101fa906001600160a01b031681565b6101fa73be8e3e3618f7474f8cb1d074a26affef007e98fb81565b6101fa73a950524441892a31ebddf91d3ceefa04bf45446681565b61023d60085481565b61021f6103ac3660046112f9565b6109b1565b6101fa736b175474e89094c44da98b954eedeac495271d0f81565b6004546101fa906001600160a01b031681565b61023d6103ed3660046112f9565b600a6020526000908152604090205481565b6000546001546040805192835260208301919091520161020e565b61021f6104283660046112dc565b610b10565b6003546001600160a01b031633146104585760405163070545c960e51b815260040160405180910390fd5b610460610bbe565b565b6004546001600160a01b0316331461048d57604051639ba0305d60e01b815260040160405180910390fd5b60048054600380546001600160a01b0383166001600160a01b031991821681179092559091169091556040519081527f5d5d6e01b731c3e68060f7fe13156f6197d4aeffc2d6f498e34c717ae616b7349060200160405180910390a1565b3373be8e3e3618f7474f8cb1d074a26affef007e98fb1461051f57604051630d32e1b960e11b815260040160405180910390fd5b6000829055600181905560408051838152602081018390527f575b1e14d0e4daeb6a32c66b32cfdea5b2c73f8aa141c107d87c903e58106e1091015b60405180910390a15050565b60055460065460405163168f92e760e01b81526001600160a01b039182166004820152736b175474e89094c44da98b954eedeac495271d0f6024820152600092919091169063168f92e790604401602060405180830381865afa1580156105d2573d6000803e3d6000fd5b505050506040513d601f19601f820116820180604052508101906105f69190611467565b905090565b6007546001600160a01b031633146104585760405163c60eb33560e01b815260040160405180910390fd5b6003546001600160a01b031633146106515760405163070545c960e51b815260040160405180910390fd5b600780546001600160a01b0319166001600160a01b0383169081179091556040519081527fdc3dba1d64dd67c0dc8b12621edd0c6ca4303a9073c3a8fcac38115e73d67b6b906020015b60405180910390a150565b6003546001600160a01b031633146106d15760405163070545c960e51b815260040160405180910390fd5b6000818152600a602052604090205460085481111561070357604051635b211b2f60e11b815260040160405180910390fd5b80600860008282546107159190611496565b90915550506000828152600a60205260408082208290555183917f85372a39829651e8322c98e0bf789d35281a87881f3d2978f0bbc15613366fbd91a25050565b6003546001600160a01b031633146107815760405163070545c960e51b815260040160405180910390fd5b6001600160a01b0381166107a85760405163d92e233d60e01b815260040160405180910390fd5b6001600160a01b03831673eeeeeeeeeeeeeeeeeeeeeeeeeeeeeeeeeeeeeeee1415610809576040516001600160a01b0382169083156108fc029084906000818181858888f19350505050158015610803573d6000803e3d6000fd5b5061081d565b61081d6001600160a01b0384168284610fdb565b604080516001600160a01b0385811682526020820185905283168183015290517f9a3055ded8c8b5f21bbf4946c5afab6e1fa8b3f057922658e5e1ade125fb0b1e9181900360600190a1505050565b6003546001600160a01b031633146108975760405163070545c960e51b815260040160405180910390fd5b600580546001600160a01b038481166001600160a01b03199283168117909355600680549185169190921681179091556040805192835260208301919091527ff5e10d0ae40ac48b447a4151e58370c547304f802ae1b11dea98176396cfc287910161055b565b6003546001600160a01b031633146109295760405163070545c960e51b815260040160405180910390fd5b816008600082825461093b91906114ad565b9250508190555081600a6000600960008154610956906114c5565b9190508190558152602001908152602001600020819055506009547f21283ff2e4dab34d074618191a7f774327a78694039444886e80f861a2c1d87b8484846040516109a49392919061153c565b60405180910390a2505050565b6003546001600160a01b031633146109dc5760405163070545c960e51b815260040160405180910390fd5b600080600080600073a4c22f0e25c6630b2017979acf1f865e94695c4b6001600160a01b031663fc5a5b63876040518263ffffffff1660e01b8152600401610a2691815260200190565b61010060405180830381865afa158015610a44573d6000803e3d6000fd5b505050506040513d601f19601f82011682018060405250810190610a689190611596565b50965050509450945094509450306001600160a01b0316856001600160a01b031614610aa7576040516302ec9f7360e01b815260040160405180910390fd5b60028690556040805165ffffffffffff868116825285811660208301528416818301526001600160801b0383166060820152905187917fd945d1520b10db851648ecbcf2b7aeaaf75d05c01a1b47122a446b527e631df8919081900360800190a2505050505050565b6003546001600160a01b03163314610b3b5760405163070545c960e51b815260040160405180910390fd5b6001600160a01b038116610b625760405163d92e233d60e01b815260040160405180910390fd5b600480546001600160a01b0319166001600160a01b038381169182179092556003546040805191909316815260208101919091527f6353ec38ac394f8be94bfafcdd3580d356470599059eaeebedc3207e1cc03dec910161069b565b6040516370a0823160e01b8152306004820152600090736b175474e89094c44da98b954eedeac495271d0f906370a0823190602401602060405180830381865afa158015610c10573d6000803e3d6000fd5b505050506040513d601f19601f82011682018060405250810190610c349190611467565b60025460405162d4ec1760e71b815291925073a4c22f0e25c6630b2017979acf1f865e94695c4b91636a760b8091610c729160040190815260200190565b600060405180830381600087803b158015610c8c57600080fd5b505af1158015610ca0573d6000803e3d6000fd5b50506040516370a0823160e01b8152306004820152839250736b175474e89094c44da98b954eedeac495271d0f91506370a0823190602401602060405180830381865afa158015610cf5573d6000803e3d6000fd5b505050506040513d601f19601f82011682018060405250810190610d199190611467565b610d239190611496565b9050600054811015610d4857604051631dd7e30760e11b815260040160405180910390fd5b6000600154821115610d6957600154610d619083611496565b905060015491505b600080546008541115610da957610d8260085484611032565b90508060086000828254610d969190611496565b90915550610da690508184611496565b92505b6000610db3610567565b90506000805482108015610dc75750600085115b15610f0157610de382600154610ddd9190611496565b86611032565b60055460405163095ea7b360e01b81526001600160a01b03909116600482015260248101829052909150736b175474e89094c44da98b954eedeac495271d0f9063095ea7b3906044016020604051808303816000875af1158015610e4b573d6000803e3d6000fd5b505050506040513d601f19601f82011682018060405250810190610e6f919061163a565b5060055460065460405163575288bf60e01b81526001600160a01b039182166004820152736b175474e89094c44da98b954eedeac495271d0f60248201526044810184905291169063575288bf90606401600060405180830381600087803b158015610eda57600080fd5b505af1158015610eee573d6000803e3d6000fd5b505050508085610efe9190611496565b94505b610f0b85856114ad565b93508315610f9357604051633b4da69f60e01b815273a950524441892a31ebddf91d3ceefa04bf454466600482015260248101859052739759a6ac90977b93b58547b4a71c78317f391a2890633b4da69f90604401600060405180830381600087803b158015610f7a57600080fd5b505af1158015610f8e573d6000803e3d6000fd5b505050505b60408051848152602081018390529081018590527faef6f8423af19ac5fb3dd3bab7050b024cae4e58f317fb95ac919111e195cee89060600160405180910390a15050505050565b604080516001600160a01b038416602482015260448082018490528251808303909101815260649091019091526020810180516001600160e01b031663a9059cbb60e01b17905261102d90849061104a565b505050565b60008183106110415781611043565b825b9392505050565b600061109f826040518060400160405280602081526020017f5361666545524332303a206c6f772d6c6576656c2063616c6c206661696c6564815250856001600160a01b03166111219092919063ffffffff16565b80519091501561102d57808060200190518101906110bd919061163a565b61102d5760405162461bcd60e51b815260206004820152602a60248201527f5361666545524332303a204552433230206f7065726174696f6e20646964206e6044820152691bdd081cdd58d8d9595960b21b60648201526084015b60405180910390fd5b60606111308484600085611138565b949350505050565b6060824710156111995760405162461bcd60e51b815260206004820152602660248201527f416464726573733a20696e73756666696369656e742062616c616e636520666f6044820152651c8818d85b1b60d21b6064820152608401611118565b6001600160a01b0385163b6111f05760405162461bcd60e51b815260206004820152601d60248201527f416464726573733a2063616c6c20746f206e6f6e2d636f6e74726163740000006044820152606401611118565b600080866001600160a01b0316858760405161120c919061165c565b60006040518083038185875af1925050503d8060008114611249576040519150601f19603f3d011682016040523d82523d6000602084013e61124e565b606091505b509150915061125e828286611269565b979650505050505050565b60608315611278575081611043565b8251156112885782518084602001fd5b8160405162461bcd60e51b81526004016111189190611678565b600080604083850312156112b557600080fd5b50508035926020909101359150565b6001600160a01b03811681146112d957600080fd5b50565b6000602082840312156112ee57600080fd5b8135611043816112c4565b60006020828403121561130b57600080fd5b5035919050565b60008060006060848603121561132757600080fd5b8335611332816112c4565b9250602084013591506040840135611349816112c4565b809150509250925092565b6000806040838503121561136757600080fd5b8235611372816112c4565b91506020830135611382816112c4565b809150509250929050565b634e487b7160e01b600052604160045260246000fd5b6000806000606084860312156113b857600080fd5b8335925060208401359150604084013567ffffffffffffffff808211156113de57600080fd5b818601915086601f8301126113f257600080fd5b8135818111156114045761140461138d565b604051601f8201601f19908116603f0116810190838211818310171561142c5761142c61138d565b8160405282815289602084870101111561144557600080fd5b8260208601602083013760006020848301015280955050505050509250925092565b60006020828403121561147957600080fd5b5051919050565b634e487b7160e01b600052601160045260246000fd5b6000828210156114a8576114a8611480565b500390565b600082198211156114c0576114c0611480565b500190565b60006000198214156114d9576114d9611480565b5060010190565b60005b838110156114fb5781810151838201526020016114e3565b8381111561150a576000848401525b50505050565b600081518084526115288160208601602086016114e0565b601f01601f19169290920160200192915050565b83815282602082015260606040820152600061155b6060830184611510565b95945050505050565b805165ffffffffffff8116811461157a57600080fd5b919050565b80516001600160801b038116811461157a57600080fd5b600080600080600080600080610100898b0312156115b357600080fd5b88516115be816112c4565b97506115cc60208a01611564565b96506115da60408a01611564565b95506115e860608a01611564565b945060808901516115f8816112c4565b60a08a015190945060ff8116811461160f57600080fd5b925061161d60c08a0161157f565b915061162b60e08a0161157f565b90509295985092959890939650565b60006020828403121561164c57600080fd5b8151801515811461104357600080fd5b6000825161166e8184602087016114e0565b9190910192915050565b602081526000611043602083018461151056fea26469706673582212206955683df54b6be71bcfa54d787f0998993229f72d536bb2313374007bd9996a64736f6c634300080b0033",
  "devdoc": {
    "kind": "dev",
    "methods": {
      "credits()": {
        "returns": {
          "_daiCredits": "The amount of DAI credits on the Keep3r Job"
        }
      },
      "deleteInvoice(uint256)": {
        "params": {
          "_invoiceNonce": "The number ID of the deleted invoice"
        }
      },
      "invoiceGas(uint256,uint256,string)": {
        "params": {
          "_claimableDai": "The equivalent amount of DAI to be charged for the gas amount",
          "_description": "A text description to explain the nature of the invoice",
          "_gasCostETH": "The amount of gas invoiced in ETH"
        }
      },
      "sendDust(address,uint256,address)": {
        "params": {
          "_amount": "The amont of the token that will be transferred",
          "_to": "The address that will receive the idle funds",
          "_token": "The token that will be transferred"
        }
      },
      "setKeep3rJob(address,address)": {
        "params": {
          "_job": "The address of the Job contract",
          "_keep3r": "The address of Keep3r where the job is registered"
        }
      },
      "setKeeper(address)": {
        "params": {
          "_keeper": "The address allowed to upkeep the claim function"
        }
      },
      "setPendingGovernor(address)": {
        "params": {
          "_pendingGovernor": "The address being proposed as the new governance"
        }
      },
      "setVestId(uint256)": {
        "params": {
          "_vestId": "The numeric ID of the vest"
        }
      }
    },
    "stateVariables": {
      "daiToClaim": {
        "return": "_dai The amount of DAI currently in debt to the contract",
        "returns": {
          "_0": "_dai The amount of DAI currently in debt to the contract"
        }
      },
      "invoiceAmount": {
        "params": {
          "_invoiceNonce": "The invoice ID"
        },
        "return": "_invoiceDai The amount of invoiced DAI",
        "returns": {
          "_0": "_invoiceDai The amount of invoiced DAI"
        }
      },
      "job": {
        "return": "_job The address of the Job contract",
        "returns": {
          "_0": "_job The address of the Job contract"
        }
      },
      "keep3r": {
        "return": "_keep3r The address of Keep3r where the job is registered",
        "returns": {
          "_0": "_keep3r The address of Keep3r where the job is registered"
        }
      },
      "keeper": {
        "return": "_keeper The address allowed to upkeep the claim function",
        "returns": {
          "_0": "_keeper The address allowed to upkeep the claim function"
        }
      }
    },
    "version": 1
  },
  "userdoc": {
    "errors": {
      "IncorrectVestId()": [
        {
          "notice": "Throws when the provided vest ID doesn't have contract as beneficiary"
        }
      ],
      "InvoiceClaimed()": [
        {
          "notice": "Throws when the invoice to be deleted has already been claimed"
        }
      ],
      "MinBuffer()": [
        {
          "notice": "Throws when the vested DAI is less than MinBuffer"
        }
      ],
      "OnlyGovernor()": [
        {
          "notice": "Throws if the caller of the function is not Governance"
        }
      ],
      "OnlyKeeper()": [
        {
          "notice": "Throws when an unallowed address tries to trigger upkeep"
        }
      ],
      "OnlyMaker()": [
        {
          "notice": "Throws when an unallowed address tries to trigger Maker methods"
        }
      ],
      "OnlyPendingGovernor()": [
        {
          "notice": "Throws if the caller of the function is not pendingGovernance"
        }
      ],
      "ZeroAddress()": [
        {
          "notice": "Throws if a variable is assigned to the zero address"
        }
      ]
    },
    "events": {
      "BufferSet(uint256,uint256)": {
        "notice": "Emitted when Maker sets new buffer thresholds"
      },
      "ClaimedDai(uint256,uint256,uint256)": {
        "notice": "Emitted when the DAI vest mechanism is executed"
      },
      "DeletedInvoice(uint256)": {
        "notice": "Emitted when Governor removes an incorrect invoice"
      },
      "DustSent(address,uint256,address)": {
        "notice": "Emitted when dust is sent"
      },
      "InvoicedGas(uint256,uint256,uint256,string)": {
        "notice": "Emitted when Governor adds an invoice to be charged"
      },
      "Keep3rJobSet(address,address)": {
        "notice": "Emitted when Governor changes the Keep3r and Job addresses"
      },
      "KeeperSet(address)": {
        "notice": "Emitted when Governor changes the Keeper address"
      },
      "PendingGovernorAccepted(address)": {
        "notice": "Emitted when pendingGovernance accepts to be governance"
      },
      "PendingGovernorSet(address,address)": {
        "notice": "Emitted when a new governance is proposed"
      },
      "VestSet(uint256,uint48,uint48,uint48,uint128)": {
        "notice": "Emitted when Maker sets a new vest"
      }
    },
    "kind": "user",
    "methods": {
      "DAI()": {
        "notice": "The address of DAI"
      },
      "DAI_JOIN()": {
        "notice": "The address of DAI JOIN"
      },
      "DSS_VEST()": {
        "notice": "The address of DSS VEST"
      },
      "MAKER_DAO()": {
        "notice": "The address of MAKER DAO"
      },
      "VOW()": {
        "notice": "The address of VOW"
      },
      "acceptPendingGovernor()": {
        "notice": "Changes the governance from the current governance to the previously proposed address"
      },
      "buffer()": {
        "notice": "Returns the buffer thresholds"
      },
      "claimDai()": {
        "notice": "Allows Governor to trigger DAI vest"
      },
      "claimDaiUpkeep()": {
        "notice": "Allows Keeper to trigger DAI vest"
      },
      "credits()": {
        "notice": "Amount of credits available"
      },
      "daiToClaim()": {
        "notice": "Sum of invoiced DAI amount minus already claimed DAI"
      },
      "deleteInvoice(uint256)": {
        "notice": "Allows Governor to remove an unclaimed invoice"
      },
      "governor()": {
        "notice": "Stores the governance address"
      },
      "invoiceAmount(uint256)": {
        "notice": "Maps the invoice ID to the invoiced DAI amount"
      },
      "invoiceGas(uint256,uint256,string)": {
        "notice": "Allows Governor to add invoices"
      },
      "invoiceNonce()": {
        "notice": "Current invoice nonce"
      },
      "maxBuffer()": {
        "notice": "The maximum amount of DAI to be vested at a time"
      },
      "minBuffer()": {
        "notice": "The minimum amount of DAI to be vested"
      },
      "pendingGovernor()": {
        "notice": "Stores the pendingGovernance address"
      },
      "sendDust(address,uint256,address)": {
        "notice": "Allows an authorized user to transfer the tokens or eth that may have been left in a contract"
      },
      "setBuffer(uint256,uint256)": {
        "notice": "Allows Maker to set the buffer thresholds"
      },
      "setKeep3rJob(address,address)": {
        "notice": "Allows Governor to set new Keep3rJob"
      },
      "setKeeper(address)": {
        "notice": "Allows Governor to set new Keeeper"
      },
      "setPendingGovernor(address)": {
        "notice": "Proposes a new address to be governance"
      },
      "setVestId(uint256)": {
        "notice": "Allows Governor to set the vest ID"
      },
      "vestId()": {
        "notice": "The Vest ID"
      }
    },
    "version": 1
  },
  "storageLayout": {
    "storage": [
      {
        "astId": 1152,
        "contract": "solidity/contracts/MakerDAOBudgetManager.sol:MakerDAOBudgetManager",
        "label": "minBuffer",
        "offset": 0,
        "slot": "0",
        "type": "t_uint256"
      },
      {
        "astId": 1156,
        "contract": "solidity/contracts/MakerDAOBudgetManager.sol:MakerDAOBudgetManager",
        "label": "maxBuffer",
        "offset": 0,
        "slot": "1",
        "type": "t_uint256"
      },
      {
        "astId": 1159,
        "contract": "solidity/contracts/MakerDAOBudgetManager.sol:MakerDAOBudgetManager",
        "label": "vestId",
        "offset": 0,
        "slot": "2",
        "type": "t_uint256"
      },
      {
        "astId": 1409,
        "contract": "solidity/contracts/MakerDAOBudgetManager.sol:MakerDAOBudgetManager",
        "label": "governor",
        "offset": 0,
        "slot": "3",
        "type": "t_address"
      },
      {
        "astId": 1412,
        "contract": "solidity/contracts/MakerDAOBudgetManager.sol:MakerDAOBudgetManager",
        "label": "pendingGovernor",
        "offset": 0,
        "slot": "4",
        "type": "t_address"
      },
      {
        "astId": 704,
        "contract": "solidity/contracts/MakerDAOBudgetManager.sol:MakerDAOBudgetManager",
        "label": "keep3r",
        "offset": 0,
        "slot": "5",
        "type": "t_address"
      },
      {
        "astId": 708,
        "contract": "solidity/contracts/MakerDAOBudgetManager.sol:MakerDAOBudgetManager",
        "label": "job",
        "offset": 0,
        "slot": "6",
        "type": "t_address"
      },
      {
        "astId": 711,
        "contract": "solidity/contracts/MakerDAOBudgetManager.sol:MakerDAOBudgetManager",
        "label": "keeper",
        "offset": 0,
        "slot": "7",
        "type": "t_address"
      },
      {
        "astId": 714,
        "contract": "solidity/contracts/MakerDAOBudgetManager.sol:MakerDAOBudgetManager",
        "label": "daiToClaim",
        "offset": 0,
        "slot": "8",
        "type": "t_uint256"
      },
      {
        "astId": 717,
        "contract": "solidity/contracts/MakerDAOBudgetManager.sol:MakerDAOBudgetManager",
        "label": "invoiceNonce",
        "offset": 0,
        "slot": "9",
        "type": "t_uint256"
      },
      {
        "astId": 722,
        "contract": "solidity/contracts/MakerDAOBudgetManager.sol:MakerDAOBudgetManager",
        "label": "invoiceAmount",
        "offset": 0,
        "slot": "10",
        "type": "t_mapping(t_uint256,t_uint256)"
      }
    ],
    "types": {
      "t_address": {
        "encoding": "inplace",
        "label": "address",
        "numberOfBytes": "20"
      },
      "t_mapping(t_uint256,t_uint256)": {
        "encoding": "mapping",
        "key": "t_uint256",
        "label": "mapping(uint256 => uint256)",
        "numberOfBytes": "32",
        "value": "t_uint256"
      },
      "t_uint256": {
        "encoding": "inplace",
        "label": "uint256",
        "numberOfBytes": "32"
      }
    }
  }
}